:020000040800F2
:10000000302B002071020008633A00089536000882
:10001000613A0008C9050008B1400008000000006E
:10002000000000000000000000000000673A000827
:10003000E906000800000000653A0008693A000877
:100040008B0200088B0200088B0200088B0200085C
:100050008B0200088B0200088B0200088B0200084C
:100060008B0200088B0200088B020008FD050008C7
:10007000090600088B020008150600088B0200081C
:100080008B020008210600088B0200088B02000882
:10009000CD050008D90500088B0200088B02000876
:1000A0008B0200088B0200088B0200088B020008FC
:1000B0007D3A00088B0200088B0200088B020008C2
:1000C0008B0200088B0200088B0200088B020008DC
:1000D0008B020008994000088B0200088B02000880
:1000E0008B0200088B0200088B0200088B020008BC
:1000F0008B0200088B0200088B0200088B020008AC
:100100008B0200088B020008893A00088B02000865
:100110008B0200088B020008953A00088B02000849
:100120008B0200082D0600088B0200088B020008D5
:100130008B0200088B0200088B0200088B0200086B
:10014000E5050008F10500088B0200088B02000895
:100150008B020008390600088B020008A540000841
:100160008B0200088B0200088B0200088B0200083B
:100170008B0200088B0200088B02000800000000C0
:100180008B0200088B020008693D0008753D0008DD
:100190008B0200088B0200088B0200088B0200080B
:1001A00000000000000000008B02000800F002F8D0
:1001B00000F04EF80AA090E8000C82448344AAF1B3
:1001C0000107DA4501D100F043F8AFF2090EBAE8B1
:1001D0000F0013F0010F18BFFB1A43F0010318477B
:1001E000C8770000E87700000A4410F8014B14F0CB
:1001F0000F0508BF10F8015B240908BF10F8014B78
:100200006D1E05D010F8013B6D1E01F8013BF9D1C0
:10021000641E03D0641E01F8015BFBD19142E4D35C
:10022000704700000023002400250026103A28BF54
:1002300078C1FBD8520728BF30C148BF0B60704758
:100240001FB507F0A8F800F04BF91FBD10B510BDA1
:1002500000F06CF91146FFF7F3FF06F07DFA00F0AD
:100260008AF903B4FFF7F2FF03BC00F08DF9000038
:100270000948804709480047FEE7FEE7FEE7FEE73A
:10028000FEE7FEE7FEE7FEE7FEE7FEE70448054976
:10029000054A064B704700006D3A0008AD010008A2
:1002A00030250020302B0020302700203027002070
:1002B00053EA020C00F069802DE9F04B4FF0000684
:1002C000002B1FBFB3FA83F503FA05F424FA05F6F1
:1002D0005E4012BF1643B2FA82F502FA05F4C5F188
:1002E00020051EBF22FA05FC44EA0C04203556EA1C
:1002F000044C4FEA144418BF641C4FF000084FF040
:100300000009904271EB030C39D3002919BFB1FAEF
:1003100081F701FA07F6B0FA80F700FA07F6C7F19D
:1003200020071EBF20FA07FC46EA0C062037B6FB62
:10033000F4FCA7EB0507103F07F01F0BCBF12006DD
:100340000CFA0BFB2CFA06F644BFB3460026202F0E
:10035000A4BF5E464FF0000B5BEA060C08BF4FF0EF
:10036000010B19EB0B09ABFB027C48EB0608C01B29
:1003700006FB02CC0BFB03CC71EB0C01C1E70B4677
:10038000024641464846BDE8F08B13B54FF00000E9
:100390004FF00001AFF30080BDE81C407047032A16
:1003A00040F2308010F0030C00F0158011F8013B92
:1003B000BCF1020F624498BF11F801CB00F8013B79
:1003C00038BF11F8013BA2F1040298BF00F801CB3D
:1003D00038BF00F8013B11F0030300F02580083A14
:1003E000C0F0088051F8043B083A51F804CBA0E86B
:1003F0000810F5E7121D5CBF51F8043B40F8043BC0
:10040000AFF30080D20724BF11F8013B11F801CBF4
:1004100048BF11F8012B24BF00F8013B00F801CBC5
:1004200048BF00F8012B704710B5203AC0F00B8090
:10043000B1E81850203AA0E81850B1E81850A0E8E8
:100440001850BFF4F5AF5FEA027C24BFB1E8185042
:10045000A0E8185044BF18C918C0BDE810405FEAB2
:10046000827C24BF51F8043B40F8043B08BF70472E
:10047000D20728BF31F8023B48BF11F8012B28BF33
:1004800020F8023B48BF00F8012B70474FF00002F4
:1004900000B5134694469646203922BFA0E80C507A
:1004A000A0E80C50B1F12001BFF4F7AF090728BF55
:1004B000A0E80C5048BF0CC05DF804EB890028BFD1
:1004C00040F8042B08BF704748BF20F8022B11F0FA
:1004D000804F18BF00F8012B704770477047704776
:1004E00070B5064C7C44064D7D4403E020682044F2
:1004F0008047241DAC42F9D170BD0000E0740000BB
:10050000E074000010B500F009F8006810BD10B5E7
:10051000044600F003F8046010BD00000048704776
:10052000CC24002000487047CC2400207546FFF7FB
:10053000F9FFAE4605006946534620F007008546A0
:1005400018B020B5FFF7A2FEBDE820404FF000062E
:100550004FF000074FF000084FF0000B21F00701AB
:10056000AC46ACE8C009ACE8C009ACE8C009ACE8EE
:10057000C0098D46704710B50446AFF30080204691
:10058000BDE81040FFF76DBE01491820ABBEFEE785
:10059000260002007047000010B504464FF4627256
:1005A0000849FFF741FF04F1280004F04DFFD8305F
:1005B00004F04AFFD83004F047FFBDE81040D830BF
:1005C00004F042BFA0740008FEE70000014800F0FC
:1005D0000ABA000044200020014800F004BA0000DC
:1005E00044200020014800F0FEB900006C200020EB
:1005F000014800F0F8B900006C200020014800F02C
:10060000F1BC0000AC230020014800F0EBBC00006E
:10061000EC220020014800F0E5BC00008C22002004
:10062000014800F0DFBC00004C230020014800F02E
:10063000D9BC00000C240020014800F0D3BC00000D
:100640006C24002001681823CAB2103AB2FBF3F2FE
:10065000054B6FF30901032A9B5CC36500D9091D93
:1006600081650846704700002878000810B50146EB
:1006700000208B698A6A4FF0C07453B1B3F5005FF4
:1006800015D072B1012A0CD0022A0AD0032A09D14E
:1006900004E01AB1012A06D0022A03D1C96AC901AD
:1006A00000D5012010BDC96AA142FAD010BD002AB0
:1006B000F7D0012AF2D0022AF3D0032AF3D010BDDA
:1006C00030B50468256825F48025256004686360DA
:1006D0008368402B036803D099600068C26030BD16
:1006E0009A600068C16030BD704772B6FEE790F84E
:1006F0002020012A07D0022A05D0416A41F4802136
:10070000416201207047006842690A43426100204B
:100710007047F0B590F820500468A468012D05D00A
:10072000022D03D0416A41F4802157E014F0406F5C
:1007300001D1E5004FD5C4F301640125A5401D603A
:100740008D684FF4C0739DB1CE6835434E6845EA5D
:10075000C605066803EB0417F5514FF4C275076828
:1007600005EB04150E697E51097D012905D009E0CC
:100770000E88CD6845EA4655EBE701684E5946F4C8
:1007800080764E511179D579567941EA056195798E
:100790002D0445EA062529434FF4C676056806EB85
:1007A0000416A9511178D57841EA056195785278F7
:1007B0002D0445EA022211434FF4C475026805EB8B
:1007C00004155151006803EB0411425842F0010234
:1007D00042500020F0BD416A41F400114162012005
:1007E000F0BD000010B590F82020012A07D0022AA1
:1007F00005D0416A41F480214162012010BD3B488F
:10080000D0F8002242F00102C0F80022D0F8002205
:1008100022F47C52C0F80022D0F800224B6A42EA4F
:100820000322C0F800220A7D02F01F0301229A4031
:10083000D0F81C329343C0F81C32CB69B3B9D0F85E
:100840000C329343C0F80C328C894B6864F31F431D
:100850004C6900EBC404C4F840320C890B6864F3A3
:100860001F434C6900EBC404C4F84432CB69012B2C
:1008700016D1D0F80C321343C0F80C320C884B68F8
:1008800064F31F434C6900EBC404C4F840320C8984
:10089000CB6864F31F434C6900EBC404C4F84432D2
:1008A0008B69002BD0F804320ED01343C0F8043209
:1008B0000B69002BD0F8143208D01343C0F814325F
:1008C000096A012904D008E09343EFE79343F5E771
:1008D000D0F81C121143C0F81C12D0F8001221F0FD
:1008E0000101C0F80012002010BD000000640040AB
:1008F000704770B590F82040012C05D0022C03D031
:10090000416A41F4802128E0046809B32469A407FE
:1009100020D04FF4D874056804EB01142D5915F05C
:100920000405956005682D591AD0ED0855600568D5
:100930002C5904F00204D4604FF4DA74056804EB17
:1009400001142E5906F00F06082E0CD308250DE0D1
:10095000E468DCE7416A41F400114162012070BDA6
:100960006D0D1560E3E72D5905F00F05156105685C
:100970002D59C5F30725956105682C59240C546140
:100980004FF4DC72046802EB0112A4581C70046876
:10099000A458240A5C700468A458240C9C70046851
:1009A000A258120EDA704FF4DE72046802EB0112E4
:1009B000A4581C710468A458240A5C710468A458E3
:1009C000240C9C710468A258120EDA71006829B1D7
:1009D000016941F020010161002070BDC16841F052
:1009E0002001C160F8E72DE9F05F054600680024AA
:1009F0004669D0F804908768D0F80CB0D0F810A001
:100A0000D0F81880F10748D0F90714D0012181608F
:100A1000B80703D5284600F084FA0CE0780702D521
:100A20004FF4006407E0380702D54FF4805402E029
:100A3000284600F075FAF80516D529684FF480703D
:100A40008860B80503D5284600F06DFA0CE07805FB
:100A500002D544F4005407E0380502D544F480443C
:100A600002E0284600F05EFAF80316D529684FF434
:100A700080308860B80303D5284600F056FA0CE0B1
:100A8000780302D544F4004407E0380302D544F467
:100A9000803402E0284600F047FA300707D55FEAC5
:100AA000CB6004D52968102044F40074C860700736
:100AB0004FF0080707D55FEA0B7004D52868C760B8
:100AC000284600F0A9F9B00706D52868C068800755
:100AD00002D0284600F0A2F9700607D55FEACA6086
:100AE00004D52968102044F480640861B00607D555
:100AF0005FEA0A7004D528680761284600F0E0F92B
:100B0000F00606D528680069800702D0284600F064
:100B1000D8F9B00308D55FEAC96005D52968102067
:100B20004860284600F0CEF9F00307D55FEA097067
:100B300004D528684760284600F0F8F9300446D507
:100B40005FEA497040D5F00504D55FEAC87001D06E
:100B500044F00104B00504D55FEA887001D544F083
:100B60000204700504D55FEA487001D544F004041E
:100B7000300529D518F0700F26D008F070004028F5
:100B800015D006DC102809D020280AD0302816D12C
:100B90000AE050280ED0602811D10EE044F008047D
:100BA0000DE044F010040AE044F0200407E044F0B3
:100BB000400404E044F0800401E044F480742868B8
:100BC000816921F070018161296804204860002C4E
:100BD00005D0686A204368622846FFF789FEBDE8B1
:100BE000F09F70B5040003D094F8200010B104E029
:100BF000012070BD204600F081F82068016841F0B6
:100C00000101016000F08CFC0546052604E000F0BF
:100C100087FC401B0A2811D820684068C007F6D01E
:100C20002068016821F00201016000F079FC0546AE
:100C30000BE000F075FC401B0A2806D9606A40F4FE
:100C40000030606284F82060D2E720684068800746
:100C5000EFD4207E0128206801683DD021F080017A
:100C60000160607E01282068016838D021F04001D1
:100C70000160A07E01282068016833D021F02001A6
:100C80000160E07E0128206801682ED041F010014B
:100C90000160207F01282068016829D021F0080127
:100CA0000160607F01282068016824D021F00401E0
:100CB0000160D4E902010843D4E904121143084356
:100CC0006168491E08432168C861002060620120F4
:100CD00084F82000002070BD41F08001C0E741F0A1
:100CE0004001C5E741F02001CAE721F01001CFE73C
:100CF00041F00801D4E741F00401D9E7F0B587B02D
:100D0000044614216846FFF7C1FB3E4B3E48DFF81E
:100D1000F0E01968D4F800C03B4A032502260927F1
:100D200010300024491CF4452AD11960012907D14B
:100D3000016841F000710160006800F000700590EA
:100D4000106840F0080010601068CDE9005600F00F
:100D50000800CDE9047069462C48CDE9024500F051
:100D6000C5FA00221146142000F048FC142000F0BF
:100D700037FC00221146152000F040FC15203BE016
:100D8000DFF88CE0F44539D1D0F800C04CF0806C2D
:100D9000C0F800C0D0F800C001290CF0806CCDF87C
:100DA00014C0196007D1016841F00071016000684A
:100DB00000F000700590106840F0020010601068AC
:100DC00002AB00F0020005904FF44050CDE9000660
:100DD00083E8B00069460F4800F088FA0022114607
:100DE000402000F00BFC402000F0FAFB00221146EE
:100DF000412000F003FC412000F0F2FB07B0F0BD01
:100E0000006400402001002030380240000C024005
:100E100000680040000402407047000070B586B0D2
:100E20000646214B214A0021FFF763FD1F4C204855
:100E30001D4D703C864226D17C34049594E80F0009
:100E40008DE80F000C3C1B4894E80E0004F048FBB2
:100E50000C34049594E80F008DE80F00A4F584503D
:100E60000C3C94E80E0004F03BFB0C34049594E831
:100E70000F008DE80F000C3C0E4894E80E0020385F
:100E8000703C04F02DFB0C4886420BD17C34049559
:100E900094E80F008DE80F000C3C084894E80E0021
:100EA00003F078FB06B070BDF00000202820002081
:100EB00044200020C40F00206C20002008130020D4
:100EC000704770477047000070B5044690F82000E6
:100ED000012804D0606A40F40020606218E002201B
:100EE00084F820002068016821F00101016000F011
:100EF00017FB05460EE000BF00F012FB401B0A285E
:100F000008D9606A40F400306062052084F820004F
:100F1000012070BD20684068C007EDD1606270BDDF
:100F200070477047704770477047704770472DE9AA
:100F3000F0410446876D00F0F3FA064694F8350058
:100F40000025022806D08020606584F834500120F6
:100F5000BDE8F0812068016821F016010160206879
:100F6000416921F080014161206C08B9A06C20B179
:100F70002068016821F0080101602068016821F003
:100F8000010101600CE000F0CBFA801B052807D9B5
:100F900020206065032084F8350084F83450D7E7BA
:100FA00020680068C007EED194F85C103F208840AC
:100FB000B860012084F8350084F834500020C7E779
:100FC00090F83510022903D0802141650120704737
:100FD000052180F835100068016821F001010160E9
:100FE000002070472DE9F84304464FF00009CDF882
:100FF000009063484FF41651A56D0068B0FBF1F7FF
:101000002E6894F85C10082000FA01F131420FD0EC
:1010100021680A6852070BD50A6822F004020A60A8
:1010200094F85C108840A860606D40F00100606535
:1010300094F85C104FF0010808FA01F0304208D033
:1010400021684969090604D5A860606D40F0020076
:10105000606594F85C1004208840304208D0216814
:101060000968890704D5A860606D40F004006065D8
:1010700094F85C1010208840304218D0216809682C
:10108000090714D5A86020680168490304D50068E1
:10109000000308D5A16C07E00168C90503D4016805
:1010A00021F008010160216C09B12046884794F8BD
:1010B0005C1020208840304231D021680968C90680
:1010C0002DD5A86094F8350005282068016806D061
:1010D000490347D5006800031DD4616C1CE021F072
:1010E000160101602068416921F080014161206C96
:1010F00008B9A06C20B12068016821F008010160E6
:1011000094F85C103F208840A86084F8358084F80B
:101110003490216D1FE0E16B09B120468847606D76
:1011200000282BD0606DC00714D0052084F835004E
:101130002068016821F0010101600098401C0090C6
:10114000B84203D820680068C007F6D184F835801B
:1011500084F83490E16C002910D001B02046BDE83D
:10116000F04308470168C905D5D4016821F0100192
:10117000016084F8358084F83490CCE7BDE8F883CA
:10118000300100202DE9F041044600F0C9F906467F
:101190005CB1022084F83500002584F834502068C2
:1011A000016821F0010101600DE00120BDE8F0813E
:1011B00000F0B6F9801B052805D9202060650320C2
:1011C00084F83500F2E720680068C007F0D1226893
:1011D000116820480140D4E901031843D4E90336DB
:1011E0003343184363691843A3691843E3691843F9
:1011F000236A18430843616A042903D1D4E90B1315
:1012000019430843106020684069666A20F00701AE
:1012100030460E43012704280CD1A06A0643E06A39
:1012200040B12046FFF722FA20B14020606584F8E3
:101230003570BAE7206846612046FFF703FA94F854
:101240005C203F2191408160656584F83570002005
:10125000ACE700003F8010F02DE9F0410446866DB8
:1012600090F83400002501280DD0012084F83400C6
:1012700094F835700020012F07D084F8340002253F
:101280002846BDE8F0810220FBE7022784F835708C
:1012900060652046FFF714FA94F85C103F20884000
:1012A000B0602068016841F016010160206C20B137
:1012B0002068016841F0080101602068016841F080
:1012C00001010160DCE7000070B5044600F028F978
:1012D0000546601C02D004480078044400F020F960
:1012E000401BA042FAD370BD240100202DE9F84F25
:1012F000DFF8F8A10022012403254FF00F090AF1BD
:10130000040BAAF1040E00BF0B6804FA02F6334086
:10131000B34270D10F7907F00307012F01D0022FDC
:1013200016D187684FEA420805FA08FC27EA0C073D
:10133000D1F80CC00CFA08FC4CEA070CC0F808C045
:101340004768B7430E79C6F3001696403E434660A1
:101350000E79F643B6070AD0C7684FEA420C05FA81
:101360000CF6B7438E6806FA0CF63E43C6600E795B
:1013700006F00306022E10D1D60800EB8608D8F836
:10138000206057074FEAD76C09FA0CF7BE430F6984
:1013900007FA0CF73743C8F8207006684FEA420C8A
:1013A00005FA0CF7BE430F7907F0030707FA0CF7AD
:1013B000374307604E6816F4403F1CD04C4E3768E8
:1013C00047F480473760366822F0030706F480460A
:1013D0000096484E07EB060CDCF8086897073F0FAD
:1013E00009FA07F826EA0806DFF80C81404503D120
:1013F0004FF0000841E072E0DFF80081404502D183
:101400004FF0010839E0DFF8F880404502D14FF095
:10141000020832E0DFF8EC80404502D14FF00308CB
:101420002BE0DFF8E480404502D14FF0040824E0CF
:10143000DFF8D880404502D14FF005081DE0DFF805
:10144000D080404502D14FF0060816E0DFF8C48096
:10145000404502D14FF007080FE0DFF8BC8040455F
:1014600002D14FF0080808E0DFF8B080404502D113
:101470004FF0090801E04FF00A0808FA07F848EAB7
:101480000608CCF80888DAF800605746D1F804C09E
:101490009E435FEACC2C00D51E433E60DBF8006023
:1014A0005F46D1F804C09E435FEA8C2C00D51E43F2
:1014B0003E60DEF800607746D1F804C09E435FEAE4
:1014C0008C3C00D51E433E60084F083F3E68D1F873
:1014D00004C09E435FEACC3C00D51E433E60521CD4
:1014E000102AFFF411AFBDE8F88F0000083C01405E
:1014F0004438024000300140000002400004024035
:1015000000080240000C024000100240001402409B
:1015100000180240001C024000200240002402404B
:10152000014880687047000024010020024881685B
:101530000278114481607047240100200B4810B5E7
:10154000016841F400710160016841F4806101604B
:10155000016841F480710160032000F06FF80F20F2
:1015600000F006F800F024F8002010BD003C024016
:1015700070B50D4D04464FF47A712878B1FBF0F048
:101580000A490968B1FBF0F000F044FB48B9102C9F
:1015900007D200222146501E00F030F800206C6077
:1015A00070BD012070BD000024010020300100202A
:1015B0000A4808B5016841F480410160006800F400
:1015C000804000900548001F016841F08051016093
:1015D000006800F08050009008BD000044380240D0
:1015E000002809DB00F01F02012191404009800022
:1015F00000F1E020C0F8001170470000F0B40E4B7D
:101600001B680C46C3F30223C3F10705042D00D960
:101610000425191D072901D2002300E0DB1E012645
:1016200006FA05F1491E214099409E40761E16405B
:101630003143F0BC04F031B80CED00E0064900F095
:10164000070208684FF6FF03184040EA0220034AE9
:1016500010430860704700000CED00E00000FA0540
:101660002DE9F8431748016841F080510160006896
:10167000154F00F08050012600903E64FFF750FFA8
:1016800005464FF47A78114C05E000BFFFF748FF9C
:10169000401B40450DD86068C003F7D57E64FFF756
:1016A0003FFF0546464607E0FFF73AFF401BB042C2
:1016B00002D90320BDE8F88360688003F4D50020D8
:1016C000F8E700004038024000000E420070004081
:1016D0002DE9F0470E46050065D0DFF81481D8F8F3
:1016E0000000F7B200F00F00B04207D288F8007097
:1016F000D8F8000000F00F00B04254D128683D4CEB
:10170000810712D5400703D5206840F4E0502060DF
:101710002878000703D5206840F4604020602068E6
:10172000A96820F0F000084320602878C0072DD079
:10173000304968680839012812D0022813D00328DC
:1017400011D00968890700292DDA216821F00301E9
:1017500001432160FFF7E4FE814641F2883A0EE042
:1017600009688903EFE709688901ECE7FFF7D8FE0C
:10177000A0EB0901514502D90320BDE8F08720689C
:10178000696800F00C00B0EB810FEFD1D8F80010C1
:10179000404601F00F01B14207D90770006800F020
:1017A0000F00B04201D00120E7E72878400705D5B7
:1017B0002068E96820F4E05008432060287800079A
:1017C00006D52068296920F4604040EAC100206005
:1017D00000F038F82168084AC1F30311515CC84091
:1017E0000649086006480068FFF7C2FE0020C4E70B
:1017F000003C0240083802403078000830010020E8
:10180000280100200448054900680968044AC1F31A
:101810008221515CC84070473001002008380240E6
:10182000407800080448054900680968044AC1F383
:101830004231515CC84070473001002008380240F6
:1018400040780008154810B5006810F00C021448E4
:1018500013D01449042A0FD0082A0ED10F4C241F8C
:101860002268236802F03F025B0207D52068C0F3BC
:101870008810A0FB010106E0084610BD2168C1F3F5
:101880008811A1FB00010023FEF712FD2168C1F3BE
:101890000141491C4900B0FBF1F010BD083802407D
:1018A0000024F400001BB7002DE9F84F04006ED0AF
:1018B0002078DFF84C93C007A9F104054AD009F15C
:1018C00004000168C1F38101012908D00068C0F358
:1018D000810002280AD1D9F80000400206D5286804
:1018E000800337D560680028E1D033E06068B0F548
:1018F000803F10D0B0F5A02F286810D020F48030A1
:101900002860286820F4802028606068A8B1FFF76C
:1019100007FE06460DE0286840F48030F4E740F406
:1019200080202860F7E700BFFFF7FAFD801B6428DE
:1019300073D828688003F7D50CE0FFF7F1FD064661
:1019400005E000BFFFF7ECFD801B6428F0D8286895
:101950008003F7D42078DFF8AC8280074FF0000ACC
:101960003ED5A748001D016811F00C0F08D0006893
:10197000C0F3810002280BD1D9F80000400207D43F
:101980002868800716D5E068012800D112E033E10D
:10199000E068B8B10120C8F80000FFF7C1FD0646B5
:1019A00005E000BFFFF7BCFD801B0228C0D82868F7
:1019B0008007F7D52868216920F0F80040EAC100C7
:1019C00028600DE0C8F800A0FFF7AAFD064604E075
:1019D000FFF7A6FD801B02281FD828688007F7D4D0
:1019E0002078000722D5864F87486169703771B12A
:1019F00001210160FFF794FD064604E0FFF790FD2A
:101A0000801B022809D838688007F7D50EE0C0F897
:101A100000A0FFF785FD064605E082E0FFF780FDA8
:101A2000801B02287DD838688007F7D420784007CB
:101A300068D5DFF8CCB100270BF13C0BDBF80000D8
:101A4000C0000BD4DBF8001041F08051CBF800103F
:101A5000DBF80000012700F0805000906B4E3068EA
:101A6000C00510D4306840F480703060FFF758FD36
:101A7000009005E0FFF754FD0099401A022850D865
:101A80003068C005F6D55E4EA0686C3601280FD0D0
:101A90000528306810D020F001003060306820F058
:101AA00004003060A068B8B1FFF73AFD00900FE085
:101AB000306840F00100F4E740F004003060F7E7E0
:101AC000FFF72EFD0099411A41F28830814266D815
:101AD00030688007F4D50EE0FFF722FD009007E0A4
:101AE000FFF71EFD0099411A41F28830814256D815
:101AF00030688007F4D42FB1DBF8001021F080515A
:101B0000CBF80010A069C8B33D49091D0968C1F3AD
:101B1000810102294AD00228504607D0C8F8600047
:101B200000E03CE0FFF7FCFC04463BE04746C8F819
:101B30006000FFF7F5FC064605E000BFFFF7F0FC8C
:101B4000801B02282BD828688001F7D4D4E907012C
:101B50000843A16A2E4A490802EB0141626A41EA40
:101B60008211084394F82C1040EA0161C9F8001072
:101B700001203866FFF7D4FC044606E03EE000BFD3
:101B8000FFF7CEFC001B022809D828688001F7D592
:101B900034E000BFFFF7C4FC001B022802D9032079
:101BA000BDE8F88F28688001F4D427E00128F7D039
:101BB000D9F80000E26900F4800191421CD1226A48
:101BC00000F03F01914217D147F6C071626A0140AF
:101BD000B1EB821F10D1A26A4FF0FF3300F4403105
:101BE00003EB5202B1EB024F06D194F82C1000F037
:101BF0007060B0EB016F01D00120D1E70020CFE78A
:101C00000438024000004742800E47420070004006
:101C10000000FFFF10B5401EB0F1807F01D301200E
:101C200010BD4FF0E02460610F21601703F035FD17
:101C30000020A06107202061002010BD7047704780
:101C400070B590F83C20012A32D0012480F83C4045
:101C5000022280F83D2003685A689D6822F07006D1
:101C60000A6832435A60134B02689A4214D0B2F1A8
:101C7000804F11D0104B9A420ED0104B9A420BD08D
:101C80000F4B9A4208D00F4B9A4205D00E4B9A4206
:101C900002D00E4B9A4204D1496825F080031943C3
:101CA000916080F83D40002180F83C10084670BDEE
:101CB000022070BD00000140000400400008004008
:101CC000000C0040000401400040014000180040AA
:101CD00010B5040003D094F83D0010B107E00120D6
:101CE00010BD002084F83C00204600F01FF80220C0
:101CF00084F83D00211D206801F0D2FE012084F807
:101D0000460084F83E0084F83F0084F8400084F8E0
:101D1000410084F8420084F8430084F8440084F8C9
:101D2000450084F83D00002010BD000008B50168A2
:101D30001D48B1F1804F11D01C4A91421DD101685C
:101D400041F0080101600068002200F008000090E6
:101D500001213220FFF752FC32201FE0016841F0E0
:101D6000010101600068002200F0010000901146AE
:101D70001C20FFF743FC1C2010E00D4A914211D1BA
:101D8000016841F0100101600068002200F01000BD
:101D9000009001213620FFF731FC3620BDE80840D5
:101DA000FFF71EBC08BD000040380240000C004098
:101DB0000010004090F83D10012901D0012070472B
:101DC000022180F83D100168CA6842F00102CA6031
:101DD00000681149884214D0B0F1804F11D00F49EA
:101DE00088420ED00E4988420BD00E49884208D056
:101DF0000D49884205D00D49884202D00C498842DD
:101E000004D1816801F00701062903D0016841F07F
:101E10000101016000207047000001400004004003
:101E200000080040000C0040000401400040014058
:101E30000018004070B5044690F83C0000250128C9
:101E400017D0012684F83C60022084F83D00206809
:101E5000826822F0770222F47F428260086850286C
:101E600038D00DDC20284FD005DC90B3102811D1DC
:101E70004AE0022070BD302846D040280AD13BE01D
:101E800060282FD070280DD0B0F5805F03D0B0F55A
:101E9000005F12D0012584F83D60002084F83C00EA
:101EA000284670BDCB68D1E90121206801F064FEAD
:101EB0002068816841F0770109E0CB68D1E9012110
:101EC000206801F059FE2068816841F480418160FA
:101ED000E1E719E0CA684968206801F021FF502154
:101EE000206806E0CA684968206801F02AFF60217E
:101EF000206801F04BFECEE7CA684968206801F00F
:101F00000FFF40212068F4E7226801461046F0E701
:101F100070472DE9F04104460068C66805694FF036
:101F20000007A90713D5B10711D5F91E01610120DA
:101F30002077206880698007204602D0FFF7E8FFFD
:101F400004E000F0A7F8204600F039F92777680789
:101F500016D5700714D521686FF0040008610220BF
:101F600020772068806910F4407F204602D0FFF778
:101F7000CFFF04E000F08EF8204600F020F927772C
:101F8000280715D5300713D521686FF008000861C0
:101F9000042020772068C0698007204602D0FFF720
:101FA000B7FF04E000F076F8204600F008F9277744
:101FB000E80616D5F00614D521686FF01000086108
:101FC000082020772068C06910F4407F204602D0A6
:101FD000FFF79EFF04E000F05DF8204600F0EFF808
:101FE0002777E80708D0F00706D021686FF00100D6
:101FF0000861204600F0E4F8280608D5300606D52A
:1020000021686FF0800008612046FFF717FE680620
:1020100008D5700606D521686FF04000086120469B
:1020200000F0B0FFA8060AD5B00608D521686FF009
:10203000200008612046BDE8F041FFF700BEBDE882
:10204000F081000010B586B0044614216846FEF702
:102050001DFA2068B0F1804F15D10C4800210268AC
:1020600042F001020260006800F0010005900520C6
:1020700000900220CDE901010120CDE9031069465D
:102080000348FFF733F906B010BD000030380240B6
:1020900000000240704770B5044690F83C000026EE
:1020A0000D4601280FD0012084F83C006AB1042AB3
:1020B0001DD0082A2FD00C2A3FD00126002084F8FA
:1020C0003C00304670BD022070BD206801F066FD06
:1020D0002068816941F0080181612068816921F0EF
:1020E00004018161206881692A69114311E0206837
:1020F00001F084FD2068816941F4006181612068FC
:10210000816921F480618161206881692A6941EADD
:1021100002218161D2E7206801F0A6FD2068C16933
:1021200041F00801C1612068C16921F00401C16169
:102130002068C1692A69114311E0206801F0C8FDD7
:102140002068C16941F40061C1612068C16921F45E
:102150008061C1612068C1692A6941EA0221C161C7
:10216000ACE710B5040003D094F83D0010B107E0CF
:10217000012010BD002084F83C00204600F01EF82D
:10218000022084F83D00211D206801F089FC012017
:1021900084F8460084F83E0084F83F0084F840004C
:1021A00084F8410084F8420084F8430084F8440035
:1021B00084F8450084F83D00002010BD704770474A
:1021C0002DE9F14FFD49FE4C2DED0C8B8CB018988C
:1021D00088427CD1002666712673E672F9486672E1
:1021E000E671014690F808804F7AB8F1010F01D1ED
:1021F000012F04D00021B8F1010F02D003E001212A
:1022000001E0032F05D000221143B8F1010F02D0E5
:1022100003E00122F8E7022F05D000221143B8F1B4
:10222000030F02D003E00122F8E7012F06D00022BD
:1022300011438346B8F1030F02D003E00122F7E710
:10224000022F45D000200143DFEDDF9ADC4890EDFE
:10225000079AD0ED098A9FEDDDAB9FEDDE8A4FF046
:10226000010A00F180097DD084F80BA084F805A054
:10227000BBF802005D460F21A0F5806001FA80F1F5
:102280001E2915D900B204F046FD9FEDD31B53EC77
:10229000112B04F0E5FD41EC1B0B19EE100A05F0C3
:1022A00009F853EC1B2B04F01BFF04F08BFAE061E0
:1022B0002888A0F5806000B20F280BDD18EE900A88
:1022C00004F0F8FF53EC1A2B04F00AFF0DE0FDE3D5
:1022D0000120B8E710F10F0F0ADA18EE900A04F0A7
:1022E000E9FF53EC1A2B04F09FFA04F06BFA6062DA
:1022F000B8F1030F03D1012F0DD0022F3CD0B5EE62
:10230000C08AA682F1EE10FA89ED078A89ED068A65
:1023100044D0012044E0FFF703F96989A1F5806109
:1023200009B2B1F5257F01DB32220AE0B1F5DC7F8D
:1023300001DB642205E0DC2901DBC82201E04FF467
:102340009672A262002914DDD9F81420A36A821AB9
:102350009A420EDBA24AA34FD2E90635DB1945F1BA
:10236000FF3500E023E0C2E90635C9F8140084F81F
:1023700004A0C9ED069A2BE02671A6826889A0F513
:10238000806000B2002802DD4FF47A7002E01FDAAC
:102390004FF61840A08284F804A019E04FF0000026
:1023A00020714FF00001084602F060F810E05D4631
:1023B000B8F1030F01D1032F1ED00021084602F00F
:1023C00055F82671A68289ED078A89ED068AE6709E
:1023D0008348E17A743802F0E7FD8148217B703848
:1023E00002F0E2FD7E487E4974387039C078C978C1
:1023F000084301287ED014E184F80CA084F805A0DD
:10240000B5F90C00574648B100EE100AB8EEC00A04
:10241000DFED750A40EE208AC4ED098AB5F90E0099
:1024200048B100EE100AB8EEC00ADFED700A00EE07
:10243000209A84ED079AB0EE480AE078F0EE408AE0
:10244000B0B9A88AC1079FED6A1ADFED6A0A02D007
:10245000B0EE410A03E0810701D5B0EE600A410702
:1024600002D5F0EE418A03E0000701D5F0EE608A64
:102470000121614802F0B6F95F480121B0EE680A17
:10248000203002F0AFF9287DC0F340115448603885
:1024900002F08AFD287DC0F3C0115148483802F08F
:1024A00083FDA88AC0F340214D48583802F07CFDD6
:1024B0004B48217C58388078084400F00100207493
:1024C000287DC0F3801146485C3802F06DFDDFF8CE
:1024D0001081E17BA8F15C0898F80200084400F044
:1024E0000100E073A88AC0F3403108F1180002F03F
:1024F0005BFD00E087E0A88AC0F3803108F11C0092
:1025000002F052FD08F118008078012805D008F18A
:102510001C008078012802D002E0277200E02672B9
:102520002F4848388078012809D02D4858388078BD
:10253000012807D098F80200012808D003E026748B
:10254000E67308E0E673207C012823D000E02674BF
:10255000E07B012820D0E670287DC0F300112048E0
:102560004C3802F021FD1E484C3800786074A88A6F
:10257000C10B1B48543802F017FDA88AC0F3802114
:102580001748503802F010FD15485438C07801281B
:1025900005D006E0E770DFE70220E070DCE789EDB8
:1025A000068A0F485038C078012801D1C9ED069A33
:1025B000A87C012822D089ED078A09E72421002080
:1025C00000000020780F002000007A449A99999921
:1025D0009999C93F00000000B81E85EB51B89E3F95
:1025E000000100200640FFFF6F1203BA6F1283B98B
:1025F00000002544000025C4D81A00209FEDFE0AE3
:1026000089ED070AE4E6667226720021E671084643
:1026100001F02CFF2671A68289ED078A89ED068AD2
:10262000E670D9ED068A4D469FEDF49BF5EEC08A23
:10263000F1EE10FA3DD018EE900A04F03BFE9FED4B
:10264000F11B53EC112B04F00BFC41EC1B0BB0EE17
:10265000680A03F00CF810EE100A04F02BFE41ECAF
:102660001C0BEA4890ED080A03F001F8E748F0EE89
:10267000408A883090ED080A02F0F9FF38EE800AAF
:1026800010EE100A04F016FE53EC192B04F0E8FBD0
:1026900041EC100B03F023F853EC1C2B51EC100B06
:1026A00004F01EFD53EC1B2B04F09EFB01D284F8BA
:1026B00007A095ED070AB5EEC00AF1EE10FA23D097
:1026C00010EE100A04F0F6FD53EC192B04F0C8FBD1
:1026D00041EC1B0BCE4890ED080A02F0C8FFF0EE6B
:1026E000408A95ED070A02F0C2FF38EEC00A02F0F8
:1026F000BEFF10EE100A04F0DDFD53EC1B2B04F0BE
:1027000073FB01D284F809A09BF80870D846032F08
:1027100003D198F80900012803D00021032F02D02B
:1027200005E0012103E098F80900022805D0002007
:10273000014304D084F808A003E00120F8E7207AE0
:1027400010B194ED150A01E094ED160AB14885ED3B
:10275000110AA67190EDCA0BB14651EC100B04F0B2
:1027600031F846466063012F02D1707A012805D006
:102770000020032F02D1717A012900D000210843E3
:10278000032F02D1717A022907D00021084340F2B9
:102790000528DFEDA18A13D101E00121F6E7032F1F
:1027A00002D0012F06D008E0707A032805D1E07826
:1027B00030B102E0707A022802D0E078022851D1CC
:1027C000944847464146143802F06EFE002891486E
:1027D0003946A0F1140005DA02F066FE41F6FF71F9
:1027E000084401E002F060FE04F095FA9FED8B1BB7
:1027F00053EC112B04F0CCF803F0E4FF00EE900A48
:10280000B0EE681AC4ED0E0A94ED0D0A01F0ECFD6D
:10281000D4ED0E0A30EE600A02F029FFF0EE40BA65
:1028200094ED0D0A9FED7FBAB0EE681AD4ED0E0A52
:1028300030EE0B0A01F0D8FDD4ED0E0A30EE600A3E
:1028400002F015FFF4EEC0BAF1EE10FA02D884F8E7
:10285000069007E094ED0D0A30EE0B0A84ED0D0AA8
:1028600084F806A0B0EE681AD4ED0E0A94ED0D0AB5
:1028700001F0BAFDD4ED0E0A6B4830EE600A84ED2B
:102880000C0A90ED010ABDEEC00A10EE100A00B26B
:102890009FED66BB674F002800DA404204F03BFA28
:1028A0009FED651B53EC112B04F0DAFA9FED641BCE
:1028B00053EC112B04F008FC41EC100B53EC1B2BD8
:1028C00087ED000B04F090FA01D397ED00BB87ED84
:1028D00000BBA07A00287DD0A86C04F0EBFC9FED33
:1028E0005A1B53EC112B03F09FFF03F06BFF0746BD
:1028F000A864E86C04F0DEFC41EC1B0B384604F0E5
:10290000D9FC9FED538B53EC182B04F0A9FA53EC30
:102910001B2B04F0A5FA9FED50BB53EC1B2B04F0CE
:102920009FFA03F04FFF00EE100A03F06DFAD4EDAA
:10293000190AE86C20EE20DA04F0BCFC41EC1C0B18
:10294000A86C04F0B7FC53EC182B04F089FA53EC94
:102950001C2B04F085FA53EC1A2B04F081FA03F0D7
:1029600031FF00EE100A03F04FFA2DEE00CAE86CBA
:1029700004F0A0FC41EC1D0BA86C04F09BFC53EC94
:10298000182B04F06DFA53EC1D2B04F069FA53EC8C
:10299000192B04F065FA03F015FF00EE100A03F09E
:1029A00033FA2CEE000A84ED170AE86C04F082FC7E
:1029B00041EC1C0BA86C04F07DFC53EC182B04F0CC
:1029C0004FFA53EC1C2B04F04BFA53EC1B2B04F086
:1029D00047FA00E0F7E103F0F5FE00EE100A03F01D
:1029E00013FAD4ED1A0AE86C20EE20CA04F062FC57
:1029F00041EC1B0BA86C33E000803B45000000005D
:102A00000000E03F9A9999999999D93FC01B0020FD
:102A1000D01C0020D80F00200000B44300000000AC
:102A200000C03640000034439C1F0020000000001E
:102A300000000000701600207B14AE47E17A743F5E
:102A4000333333333333D33FFCA9F1D24D62503F9C
:102A50004AD8124DFB2119409A9999999999E93FC1
:102A600004F028FC53EC182B04F0FAF953EC1B2B60
:102A700004F0F6F953EC1A2B04F0F2F903F0A2FE7D
:102A800000EE100A03F0C0F92CEE00BAE86C04F076
:102A900011FC41EC1A0BA86C04F00CFC53EC182B45
:102AA00004F0DEF953EC1A2B04F0DAF953EC192B8D
:102AB00004F0D6F903F086FE00EE100A03F0A4F944
:102AC0002BEE000A012184ED180A00E0FAE194EDF2
:102AD000090AFE4801F086FEDFF8F4934F46D9F864
:102AE000300004F0E7FB09F5687282F8C0A0C2E983
:102AF000260197ED050ADFEDF70A20EE200ABDEE6C
:102B0000C00A10EE100A04F006F99FEDF31B53EC17
:102B1000112B04F0A5F903F055FE00EE100A012177
:102B200009F5207001F05EFEE06A04F0C3FB41ECA1
:102B30001A0B09F52070406804F0BCFB41EC180B3F
:102B4000E248D4ED170A90ED010A30EE200A10EEAB
:102B5000100A04F0AFFB41EC190B302209F55C714F
:102B60006846FDF761FC09F54C70B0EE4A2AD0E9E1
:102B70000E23F0EE6A2AB0EE481AF0EE681AB0EEB4
:102B8000490AF0EE690A703002F020FA94ED070A63
:102B90009FEDD38AF0EE480A02F0ABFD84ED070A00
:102BA00047464146A9F5517002F07EFC00EE100A3E
:102BB000B0EE481AF8EEC00A94ED070A01F014FCD2
:102BC00084ED080A3946A9F5517002F07BFC00EE4D
:102BD000100A012109F51870B8EEC00A01F002FED2
:102BE0003946A9F5517002F05FFC04F094F841EC0D
:102BF000190B206A04F05EFB41EC180B302209F13E
:102C000048016846FDF710FC9FEDB6AB09F13007AF
:102C1000B0EE491AD7E90423B0EE4A2AF0EE6A2A48
:102C2000F0EE691AB0EE480AF0EE680A07F180008B
:102C300002F01AFB07F50C70406804F03BFB41EC16
:102C4000180B302207F150016846FDF7EDFB07F144
:102C50008000B0EE4A2A90ED020BD7E91223F0EE85
:102C60006A2AB0EE481AF0EE681AD83002F0FCFA80
:102C700007F5116794ED0F0AA7F1880887ED0D0A93
:102C800088ED0D0AD4ED140A94ED130A404602F0C3
:102C900012F94034404694EC030A403C02F004F937
:102CA000D4ED140A94ED130A384602F004F904F145
:102CB0004001384691EC030A02F0F6F8A7F6A4406A
:102CC0004068406904F027F841EC180B8749D1E9C6
:102CD000060104F037F841EC190B3022A7F5986192
:102CE0006846FDF7A1FB9FED82ABA7F5A260B0EEB1
:102CF000481AD0E91223B0EE4A2AF0EE6A2AF0EE22
:102D0000681AB0EE490AF0EE690A00F5C87002F0E0
:102D1000ABFA4FF40171A7F6A44002F0D3FB03F025
:102D2000FAFF41EC180B3022A7F591616846FDF7D8
:102D30007BFBA7F56070B0EE4A2A90ED020BA0F580
:102D40008870F0EE6A2AD0E90023B0EE481AF0EE5F
:102D5000681A383002F088FA40F20121A7F6944050
:102D600002F048FCB0F90400012200EE100A022132
:102D70004046F8EEC00A95ED060A02F0A4F840F2CB
:102D80000221A7F6944002F035FCB0F904000122BC
:102D900000EE100A02213846F8EEC00A95ED060A48
:102DA000B1EE400A02F08FF84D46142105F13400CF
:102DB00001F041FF85F83C00A1780843A070307A0B
:102DC000022809D00BE085ED128A95ED140A84EDF6
:102DD000170A95ED150A75E6707A022840D0002092
:102DE0006179454D81F0010108433BD0A5F587602D
:102DF00002F02AFAA5F5587002F026FA0122002105
:102E00003A4801F0BFFB95ED020B51EC100B03F0BB
:102E100053FF01B235480422083001F0B3FB98EDAE
:102E20000C0A0122BDEEC00A10EE100A01B22F48B2
:102E3000083001F0A7FB97ED0C0A0222BDEEC00A94
:102E400010EE100A01B22948083001F09BFB99ED01
:102E5000050ABDEEC00AB8EEC00A84ED090A31E0E9
:102E60000120BDE7254890ED020B51EC100B03F05B
:102E700023FF01B201221D4801F084FB95ED020BF6
:102E800051EC100B03F018FF01B21848042208306F
:102E900001F078FB98ED0C0A0122BDEEC00A10EE9D
:102EA000100A01B21148083001F06CFB97ED0C0AD2
:102EB0000222BDEEC00A10EE100A01B20B48083023
:102EC00001F060FB0E49189888421BE05016002064
:102ED000081300200000C8427B14AE47E17A843F0B
:102EE00000F8FF4500000000004CDD40000100201C
:102EF000000000000000D040F017002090140020D7
:102F0000DC20002033D1A07B70B301F013FAA07B4A
:102F100040F20121401C00F00100A073164802F0AD
:102F200069FBB0F90400154C00EE100A40F20221D2
:102F30001148B8EEC00A84ED000A02F05BFBB0F95C
:102F40000400214600EE100A4FF0FF402022B8EEA8
:102F5000C00A84ED010AE0610CB00948BDEC0C8B9D
:102F6000BDE8F84F00F058BB01F0CEF8CFE70CB049
:102F7000BDEC0C8BBDE8F88FB40F0020E81F0020DB
:102F800044220020704718B5034690F842002028DC
:102F900001D0022018BD61B15AB101201863002090
:102FA0005863184601F05CF80028F3D1196B012929
:102FB00001D0012018BD19680A6849680091196894
:102FC0000C3151E8002F42F0100241E80024002C9F
:102FD000F5D118BD00B50D4A87B090420DD1122928
:102FE0000BD1684601F0B0FB182269460848FDF78E
:102FF000D6F9FEF795FA07490860054907B012228D
:10300000183102485DF804EBFFF7BDBFFC2100203A
:10301000780F0020F800002070470000F8B5016824
:1030200004460868CA684B6910F00F0F4FF000059E
:1030300059D003F0010602F49077374365D0C107F9
:1030400005D0D10503D5616C41F0010161644107F0
:1030500005D5D90703D0616C41F002016164810795
:1030600005D5D90703D0616C41F004016164010703
:1030700007D502F02001314303D0616C41F0080113
:103080006164616C00293AD0800604D5900602D5AF
:10309000204600F0FDFE20684069616CC0F380109E
:1030A000090700D460B3204600F0BDFE20684069E7
:1030B000400621D52068143050E8001F21F040015F
:1030C00040E80012002AF5D1E06BA8B16E49016515
:1030D000E06BFDF775FF002811D0E06B016D01B0CA
:1030E000BDE8F040084783060FD593060DD520466E
:1030F000BDE8F84000F0CCBE2046FFF78DFFF8BDDC
:103100002046FFF789FF6564F8BD266B2023012E5A
:103110007DD1C6067BD5D60679D50868486800906B
:1031200048694FF00206400641D5E16B08684068E7
:103130000004000CE8D0A28D8242E5D9E085C86980
:10314000B0F5807F2DD020680C3050E8001F21F4AE
:10315000807140E80012002AF5D12068143050E850
:10316000001F21F0010140E80012002AF5D120687B
:10317000143050E8001F21F0400140E80012002AFE
:10318000F5D184F84230256320680C3050E8001FE8
:1031900021F0100140E80012002AF5D1E06BFDF7A4
:1031A000C6FE6663A08DE18D401A81B22AE0A08D33
:1031B000E18D401A81B2E08D0028A5D00029A3D06E
:1031C00022680C3252E8000F20F4907042E80007A9
:1031D000002FF5D12068143050E8002F22F00102B2
:1031E00040E80027002FF5D184F84230256320689D
:1031F0000C3050E8002F22F0100240E80023002B92
:10320000F5D166632046FFF7E5FEF8BDFFE705064A
:103210002BD5150629D594F841002128F5D1A068B1
:10322000B0F5805F01D12069B0B1206A411C2162F4
:10323000216800784860E08C401E0004000CE084A7
:10324000E3D12068C16821F08001C1602068C168B5
:1032500041F04001C160D8E7206A0088C0F308004F
:103260004860206A801C2062E5E74006CDD5500604
:10327000CBD5CA68204622F04002CA6084F84130AB
:1032800000F006FAC1E70000813D000870B50400B7
:1032900004D094F84100002510B106E0012070BD73
:1032A00084F84050204600F023F8242084F84100A0
:1032B0002068C16821F40051C160204600F04AFE38
:1032C0002068016921F4904101612068416921F081
:1032D0002A0141612068C16841F40051C160656400
:1032E000202084F8410084F842006563002070BD0E
:1032F0002DE9F04F87B0054614216846FDF7C6F862
:10330000B948DFF8E0821038D5F800C0DFF8D8A25D
:10331000022203210823DFF8D4E2002407154FF02E
:1033200040094FF02066C44560D1DAF8008048F0CB
:103330008048CAF80080DAF800C00CF0804CCDF864
:1033400014C0D0F800C04CF0100CC0F800C00068E9
:1033500000F010000590CDE90313C8018DE81500B9
:1033600069467046FDF7C2FFDFF88882A0494046F3
:10337000C8F80010C0E90164C0E90347C8F8144068
:10338000C8F81840C8F81C40C8F82040C8F82440C5
:10339000FDF7F8FE08B1FDF7A8F9C5F83C80C8F8BC
:1033A0003850DFF85082924908F1600840463039C1
:1033B000C0E90347C8F81440C8F81840C8F81C40D2
:1033C000C8F8204088E84202C8F82440FDF7DAFE39
:1033D00008B1FDF78AF9C5F838800022114652205D
:1033E000C8F83850FEF70AF9522061E0DFF8088289
:1033F000C44562D1DAF80080A34648F00048CAF814
:103400000080DAF800C00CF0004CCDF814C0D0F801
:1034100000C04CF0100CC0F800C0006800F01000B4
:1034200005908DE81600CDE9031369467046FDF757
:103430005DFFDFF8C0816E4908F1C00848314046A1
:10344000C8F80010C0E90164C0E90347C8F8144097
:10345000C8F81840C8F81C40C8F82040C8F82440F4
:10346000FDF790FE08B1FDF740F96148634CC5F8DF
:103470003C804838C8F8385084E84102C4E903B7B2
:10348000C4F814B0C4F818B0C4F81CB0C4F820B024
:103490002046C4F824B0FDF775FE08B1FDF725F904
:1034A000AC63002211465320A563FEF7A7F8532012
:1034B000FEF796F807B0BDE8F08FDFF84481DFF83B
:1034C00028A1C4450AF1040A23D1DAF8005045F0D6
:1034D0001005CAF80050DAF8003003F01003059325
:1034E000036843F002030360006800F002000590E7
:1034F000C0208DE815000720CDE90310694641483A
:10350000FDF7F4FE002211462520FEF777F825206E
:10351000CEE7DFF8F480C445CCD1DAF8008048F07B
:103520002008CAF80080DAF800C00CF0200CCDF8B2
:1035300014C0D0F800C04CF0400CC0F800C00068C7
:1035400000F040000590CDE903134FF484408DE86E
:10355000150069462D48FDF7C9FEDFF8A0802C490B
:1035600008F160084046C8F80010C0E90164C0E9ED
:103570000347C8F81440C8F81840C8F81C40C8F8F9
:103580002040C8F82440FDF7FDFD08B1FDF7ADF877
:10359000C5F83C80C8F83850DFF860801C4908F155
:1035A000C00840467831C0E90347C8F81440C8F85D
:1035B0001840C8F81C40C8F8204088E84202C8F803
:1035C0002440FDF7DFFD08B1FDF78FF8C5F838801E
:1035D000002211464720C8F83850FEF70FF8472060
:1035E00066E70000007800404038024000100240CA
:1035F000586002408C220020007C0040AC23002058
:103600000010014000040240001401400018024074
:10361000286402407047000070B5044690F84100ED
:10362000202801D0022070BD49B342B32162A28498
:10363000E28400206064212384F84130A56B114BA3
:10364000EB63A56B104B2B64A56B104BEB64A36B6A
:103650001865256813462A1DA06BFDF7FDFD21683E
:103660006FF0400008602068143050E8001F41F0FF
:10367000800140E80012002AF5D1002070BD012031
:1036800070BD0000DB3D00081D3E0008913D0008B4
:1036900070477047FEE700000F4810B50D49016004
:1036A0000921416000214FF480328160C0E903129A
:1036B00012014261017641768176C17601774177C8
:1036C000FDF78FFA002803D0BDE81040FDF70DB8D4
:1036D00010BD000000640040442000200F4810B5D9
:1036E0000D4901600921416000214FF48032816061
:1036F000C0E9031212014261017641768176C176FA
:1037000001774177FDF76DFA002803D0BDE810403E
:10371000FCF7EBBF10BD0000006800406C200020EB
:10372000214808B5016841F400110160016801F405
:1037300000110091016841F48001016000680022DD
:1037400000F48000009011460B20FDF757FF0B207E
:10375000FDF746FF002211460C20FDF74FFF0C201D
:10376000FDF73EFF002211460E20FDF747FF0E2019
:10377000FDF736FF002211461120FDF73FFF112013
:10378000FDF72EFF002211463920FDF737FF3920C3
:10379000FDF726FF002211464520FDF72FFFBDE86B
:1037A00008404520FDF71CBF30380240194808B5D5
:1037B000016841F010010160016801F01001009101
:1037C000016841F040010160016801F04001009191
:1037D000016841F001010160016801F001010091FF
:1037E000016841F002010160016801F002010091ED
:1037F000016841F008010160016801F008010091D1
:10380000016841F080010160006800F080000090D4
:1038100008BD00003038024010B58EB00024079477
:10382000089409940A940B941C2168460C94FCF7A4
:103830002DFE23484FF0804101602C21C0E9011486
:1038400044F61F61C0E9031480218161FEF740FA4C
:1038500008B1FCF74AFF4FF48050079007A91848B9
:10386000FEF7E8FA08B1FCF740FF1548FEF779FCCF
:1038700008B1FCF73AFF0B940BA911480C94FEF722
:10388000DFF908B1FCF731FF602000904FF4FA70C7
:10389000CDE901040022694609480494FEF7FBFBC8
:1038A00008B1FCF722FF082269460548FEF7F3FB42
:1038B00008B1FCF71AFF0248FEF7C4FB0EB010BDBA
:1038C0009420002010B586B000241748009401947D
:1038D0000294039404941349059401605921C0E9AA
:1038E000011440F2E731C0E9031480218161FEF741
:1038F000EFF908B1FCF7F9FE4FF4805000906946EB
:103900000948FEF797FA08B1FCF7EFFE049404A902
:1039100005480594FEF794F9002801D0FCF7E5FE70
:1039200006B010BD000C0040DC2000201CB50024B7
:103930000F4800940D49019401605921C0E9011418
:1039400040F2E731C16080218161FEF7C1F908B121
:10395000FCF7CBFE0094694605480194FEF770F928
:10396000002801D0FCF7C1FE1CBD00000010004083
:10397000242100200C4810B50A4901604FF4E131C0
:103980004160002181600C22C160C0E904128161A4
:10399000C161FFF77BFC002803D0BDE81040FCF7B5
:1039A000A4BE10BD007800406C2100200C4810B56A
:1039B0000A4901604FF4E1214160002181600C223D
:1039C000C160C0E904128161C161FFF75FFC00289A
:1039D00003D0BDE81040FCF788BE10BD007C00405D
:1039E000B42100200E4810B50C4901600D4941601A
:1039F0004FF48051816000214FF48062C0E90312CE
:103A00000C22C0E90521C161FFF740FC002803D06A
:103A1000BDE81040FCF769BE10BD00000010014079
:103A2000FC210020A08601000C4810B50A49016065
:103A30004FF4E1314160002181600C22C160C0E996
:103A400004128161C161FFF721FC002803D0BDE8A9
:103A50001040FCF74ABE10BD001401404422002073
:103A6000FEE7FEE770477047FDF760BD024801685A
:103A700041F470010160704788ED00E00148FEF7F5
:103A800048BA0000942000200148FEF742BA000026
:103A9000DC2000200148FEF73CBA00002421002071
:103AA000F0B50268294C2A4D2A4E2B4F2B4B4FF074
:103AB000804CA04209D0604507D0A84205D0B04252
:103AC00003D0B84201D0984204D122F0700E4A6867
:103AD00042EA0E02A0421BD0604519D0A84217D07E
:103AE000B04215D0B84213D0984211D01C4DA84214
:103AF0000ED01C4DA8420BD01B4DA84208D01B4D28
:103B0000A84205D01A4DA84202D01A4DA84203D1AE
:103B100022F44075CA682A434D6922F080022A4384
:103B200002608A68C2620A688262A04201D098423A
:103B300001D109690163012141610169C90703D00C
:103B4000016921F001010161F0BD000000000140A8
:103B50000004004000080040000C00400004014048
:103B6000004001400044014000480140001800406E
:103B7000001C00400020004010B5846842EA032287
:103B800024F47F440A432243826010BD826822F0FD
:103B900070020A4342F0070181607047F0B5036A82
:103BA000026A22F00102026242688469124E24F025
:103BB00073050C682C4323F002058B682B430D4DD5
:103BC000A84201D0B04205D123F00807CB683B439F
:103BD00023F00403A84201D0B04205D14D6922F47C
:103BE000407215438A692A4342608461496841638F
:103BF0000362F0BD0000014000040140F0B5026A1C
:103C0000036A23F010030362436884690D6824F497
:103C1000E64444EA05248D6822F0200242EA0512B7
:103C20000F4D104EA84201D0B04206D1CF6822F00D
:103C3000800242EA071222F04002A84201D0B042BC
:103C400007D14D6923F4406343EA85038D6943EA54
:103C5000850343608461496881630262F0BD0000AE
:103C60000000014000040140F0B5026A036A23F439
:103C7000807303624368C46922F4007224F0730500
:103C80000C68124E2C438D6842EA05220E4DA84264
:103C900001D0B04206D1CF6822F4006242EA072286
:103CA00022F48062A84201D0B04207D14D6923F4CA
:103CB000405343EA05138D6943EA05134360C46129
:103CC0004968C1630262F0BD000001400004014088
:103CD00030B5046A026A22F4805202624268C36903
:103CE0000D6823F4E64343EA05238D6824F4005469
:103CF00044EA0534084DA84202D0084DA84204D138
:103D00004D6922F4804242EA85124260C3614968EB
:103D10000164046230BD0000000001400004014065
:103D200010B5036A046A24F001040462846924F073
:103D3000F00444EA021423F00A020A438461026296
:103D400010BD10B5036A046A24F01004046284698B
:103D500023F0A00324F4704444EA023243EA011140
:103D60008261016210BD00000148FFF757B90000F1
:103D70006C2100200148FFF751B90000B421002058
:103D800010B5806B0021C185C184FFF745F910BDD6
:103D900070B5846B2068406994F84110C0F3C0107E
:103DA0000025212904D118B1E584204600F062F8ED
:103DB0002068406994F84210C0F38010222904D191
:103DC00018B1E585204600F02EF8606C40F0100038
:103DD00060642046FFF720F970BD10B50146806B86
:103DE00009680968C90516D40021C1840168143125
:103DF00051E8002F22F0800241E80023002BF5D18A
:103E000001680C3151E8002F42F0400241E80023E4
:103E1000002BF5D110BDFFF73BFC10BD10B5806B3A
:103E2000FFF737FC10BD01680C3151E8002F22F478
:103E3000907241E80023002BF5D10168143151E85C
:103E4000002F22F0010241E80023002BF5D1016B85
:103E5000012909D101680C3151E8002F22F010022C
:103E600041E80023002BF5D1202180F842100021E9
:103E70000163704701680C3151E8002F22F0C00245
:103E800041E80023002BF5D1202180F84110704734
:103E900008B590F84210222901D0022008BD82689E
:103EA0004FF480539A4201D1016921B1816A9A424B
:103EB0001BD04AB10AE00268816A5268C2F3080264
:103EC0000A80816A891C08E0026972B1026852683E
:103ED00002F07F020A70816A491C8162C18D491E0D
:103EE0000904090CC18503D01BE002685268F1E7A0
:103EF0000168CA6822F02002CA600168CA6822F418
:103F00008072CA6001684A6922F001024A61202178
:103F100080F8421000214163026B012A03D0FFF7B1
:103F200079FB002008BD016301680C3151E8002FC6
:103F300022F0100241E80023002BF5D101680A6845
:103F4000D20602D50A6849680091818DFFF742F8D0
:103F5000E7E7000070B5044600680169E26821F4F3
:103F60004051114301612169A068E2690843616918
:103F7000114308432168CA6849F20C639A4302431B
:103F8000CA6020684169A26921F44071114341610E
:103F900031492068884202D03049884202D1FDF779
:103FA00041FC01E0FDF72EFCE269002319216425A4
:103FB0003226B2F5004F626828D0A0FB0101930FB2
:103FC0009200FCF775F90146B0FBF5F06FF01802AE
:103FD000504301EB800006EB0010B0FBF5F000F061
:103FE000F002B1FBF5F002EB0012B1FBF5F06FF05F
:103FF0001803584301EB800006EB0010B0FBF5F00E
:1040000000F00F0021681044886070BDA0FB010122
:1040100092185B41FCF74CF90146B0FBF5F0020148
:10402000B1FBF5F06FF01803584301EB800006EB8D
:10403000C000B0FBF5F000F0F80002EB4002B1FB6D
:10404000F5F0584301EB800006EBC000B0FBF5F043
:1040500000F00700D6E70000001001400014014006
:1040600081628285C28500214164222180F842104C
:10407000016921B10168CA6842F48072CA600168AE
:104080004A6942F001024A610068C16841F02001BA
:10409000C1600020704700000148FEF7BFBF00006C
:1040A000FC2100200148FEF7B9BF00004422002097
:1040B000FEE7000010B500F01DF90848FCF704FF0A
:1040C00002210648FCF713FB0548FCF7FDFEBDE89E
:1040D000104002210248FCF70ABB000044200020E7
:1040E0006C2000200FB587B00823049300230091B3
:1040F0000193029303938DF814300AAB6946FCF7E1
:1041000008FB0BB000BD00000223034A40F2FF1180
:104110000248FFF7E7BF0000000100204420002014
:1041200070B5084C0225FDF7FBF9B0FBF5F105FB76
:10413000110008B1012100E00021201DBDE8704000
:1041400000F032BF100100202DE9F0412DED068B6B
:104150009FED540A544880ED070AFFF7ABFF00F0CB
:10416000E9FA0A20FDF7B0F89FED502B9FED511BA7
:104170009FED520B534880ED322B80ED181B80EDE4
:104180001A0BB0EE000A80ED210ADFED4F0AC0EDF8
:104190002C0A9FED4E8A00F5C560B0EE480A00F08B
:1041A0008AFE9FED4B1ADFED4B8AF0EE680A9FED19
:1041B0004A9A4A48B0EE490A00F076FEDFED489A86
:1041C000B0EE480A4748F0EE690A00F074FE9FED31
:1041D00046AAF0EE680AB0EE490AB0EE4A1A414823
:1041E00000F062FE3D48F0EE690AB0EE480A8838F9
:1041F00000F061FE3948B0EE4A1AF0EE680AB0EEFF
:10420000490A883800F050FEFDF78AF900244FF47F
:1042100001769FED368A0546F71E40F202283146A8
:10422000334801F0E7F9B0F90400012200EE100A6A
:1042300002212A48F8EEC00AB0EE480A00F043FE18
:1042400039462B4801F0D6F9B0F90400012200EEFE
:10425000100A02212348F8EEC00AB0EE480A00F026
:1042600032FE4146224801F0C5F9B0F904000122AE
:1042700000EE100A19480221F8EEC00AB0EE480A12
:10428000883800F020FEFDF74BF9431B64EB040077
:104290004FF4FA720021D21A8141C0D2BDEC068BD4
:1042A000BDE8F0810000C843B01A00200000000003
:1042B00000000840000000000000000000000000B6
:1042C00000001440A8160020000096430000484457
:1042D0000024F44800409C450000C842D01C002047
:1042E00000004843C01B0020002474490000000067
:1042F000B40F002010B58AB00020012104900E24D4
:10430000CDE90814019002900590CDE906010090D6
:10431000039069460548FCF765FA1C200990694638
:1043200005940348FCF75EFA0AB010BD4420002053
:104330006C2000200223024A19020248FFF7D2BE75
:10434000080100204420002030B593B03021684699
:10435000FCF79CF814210CA8FCF798F820480025DD
:10436000016841F080510160006800F080501190B8
:104370001C48016841F4404101600068022400F4D7
:104380004040119001200090000401908001CDE98F
:10439000064006200890B420CDE9090404200B90C3
:1043A0006846FDF781FA08B172B6FEE7FDF758F9E5
:1043B00008B172B6FEE70CA90F2081E831004FF476
:1043C000A0500F904FF48050109005210CA8FDF7DD
:1043D0007FF9002801D072B6FEE713B030BD0000AF
:1043E000403802400070004010B52DED088BB0EE53
:1043F000409AF0EE418A39EE608A18EE900A9FEDFD
:1044000019AB02F057FF53EC1A2B02F029FD41ECD7
:104410001B0B18EE100A02F04DFF53EC1B2B02F0A1
:104420001DFE02D239EE689A16E0B1EE680A10EE6F
:10443000100A02F03FFF53EC1A2B02F011FD41EC81
:104440001A0B18EE100A02F035FF53EC1A2B02F08B
:10445000CBFC01D239EE289AB0EE490ABDEC088BAC
:1044600010BD0000000000000000E03F70B5354CBA
:1044700005462DED028B344AE06E904201DB0020B0
:1044800028702878491E084202D094ED1B0A03E0E8
:104490009FED2E0A84ED1B0ADFED2D0A20EE200A87
:1044A00001F0B2FC84ED1C0A94ED1B0ADFED290A31
:1044B00020EE200A01F0A8FC84ED1D0A94ED1B0AF1
:1044C000F2EE0E0A30EEC00A00F0A4FB02F023FC6C
:1044D0009FED211B53EC112B02F0C2FC02F072F98C
:1044E00000EE100A1748F6EE000A803030EE201A6F
:1044F00080ED010A30EEC00A84ED1F1A80ED000A3B
:10450000D4ED1C0A287861EE200A94ED1D1A40EEC5
:10451000010A00EE100AB8EE400A20EE808A84ED0F
:104520001E8AE06E02F0C6FE9FED0D0B53EC102BC1
:1045300002F07AF902F046F9E066B0EE480ABDEC06
:10454000028B70BD000000200000A04100000000B0
:1045500074D9203FD10F4940000000000000E03F27
:10456000FCA9F1D24D62503FB0F90020891A4FF0FA
:10457000FF3205D4052903DA0844407AFF2800D128
:104580001046704700EB42000B0A00F8023D4170F4
:10459000704700002DE9F0414FF4C4722DED028BFD
:1045A00004460C9D4FF42273914203D0012099429E
:1045B00001D102E00020012600E0002630404FF447
:1045C0006276B14201D0012700E0002738427DD158
:1045D000914206D12888208468886084A888A084B5
:1045E00097E09FED4F8B994221D1B5F9000002F081
:1045F00092FB53EC182B02F033FC02F0E3F8A062BC
:10460000B5F9020002F087FB53EC182B02F028FCEE
:1046100002F0D8F8E062B5F9040002F07CFB53EC3C
:10462000182B02F01DFC02F0CDF8206371E0B142BE
:104630006FD1B5F9000002F06EFB53EC182B02F0BD
:104640000FFC02F0BFF82060B5F9020002F063FB36
:1046500053EC182B02F004FC02F0B4F86060B5F9DA
:10466000040002F058FB53EC182B02F0F9FB02F0A7
:10467000A9F800EE100ADFED2C1A84ED020AB5EE5F
:10468000C00A84ED030AF1EE10FA03D230EE210ADB
:1046900084ED030AD4ED040AF4EE400AF1EE10FAB8
:1046A00029D010EE900A10F1814F24D030EE601A1C
:1046B0001E4911EE100A88420CD971EEE01AF0EE94
:1046C000400A94ED051A71EEA00A00E024E071EEB4
:1046D000200A0EE011EE100A1549884210DDB0EEF6
:1046E000401A94ED052A31EEC11A71EE200A72EEDD
:1046F000600AC4ED050A84ED040A207E28B108E0B2
:10470000D4ED050A70EE810AF3E784ED070A012073
:104710002076FCF705FF6063BDEC028BBDE8F081FD
:104720007B14AE47E17A843F0000B443000034C3F9
:1047300000003443122202490248FEF724BC000064
:10474000900F0020FC21002010B586B004461821EF
:104750006846FBF79BFE22490888C0F30A00ADF8C3
:1047600000004878C208887842EA4012C2F30A0280
:10477000ADF80220CA78800940EA8202087942EA4C
:104780008022C2F30A02ADF804204A79400840EAC8
:10479000C210C0F30A00ADF8060090098DF80800B9
:1047A000C2F301108DF80900C888ADF80C00088923
:1047B000ADF80E004889ADF81000087B8DF81200A6
:1047C000487B8DF81300C889ADF81400088AADF84D
:1047D0000A00182269462046FBF7E1FD06B010BD2D
:1047E000900F002010B504462DED0A8BB0EE408AE4
:1047F00080ED008A31B1207F68B1012853D00328B1
:1048000050D191E084ED018A9FED610A80ED020AAA
:10481000BDEC0A8B10BDD4ED019AD4ED028A94ED63
:10482000050A10EE100A48EE809AC4ED019A02F0D3
:1048300041FD94ED049A79EEC80A41EC1A0B29EE79
:10484000090A20EE200A10EE100A02F033FD41ECB6
:104850001B0B18EE900A02F02DFD41EC1C0B19EE1B
:10486000100A02F027FD9FED4B1B53EC112B02F0B9
:10487000F7FA53EC1C2B02F0F3FA53EC1B2B02F06B
:104880002FFC53EC1A2B02F0EBFA41EC190B18EE4B
:10489000900A02F00FFD53EC192B01F0C5FF01F057
:1048A00091FFA0605AE0206902F004FD9FED3B1BE0
:1048B00053EC112B02F0D4FA41EC100B53EC102BFB
:1048C0009FED380B51EC100B02F062F801F07AFF0B
:1048D000A06194ED020A00F0CAFED4ED020A94ED44
:1048E000001A60EE200A94ED010A30EE410A94EDC0
:1048F000061A00EE810A00F08DF900EE100AD4EDE0
:10490000040AD4ED011AB8EEC00A94ED051A60EE5F
:10491000C00A94ED020A40EE011A00EE810AC4EDCD
:10492000011A84ED020A19E094ED010AD4ED051A8A
:1049300094ED041A30EE480AD4ED020A00F086F82D
:10494000D4ED011AD4ED020A94ED051A40EE811A55
:1049500040EE010AC4ED011AC4ED020A94ED030A07
:10496000B5EEC00AF1EE10FA3FF452AFD4ED020AF0
:10497000F4EEC00AF1EE10FA07DCB1EE400AF4EEF4
:10498000C00AF1EE10FABFF443AF84ED020A3FE72C
:104990000000000000000000000000C00000000057
:1049A00000000040000000000000F03FC0ED030ADE
:1049B00080ED040A80ED051A0177704710B52DEDE2
:1049C000028BB0EE408AF0EEC81AF4EEC11AF1EE96
:1049D00010FA0ED8B7EE000A70EE600AB0EE410A87
:1049E00000F0E0FEC8EE000AB0EE600ABDEC028BFB
:1049F00010BDB0EE480A00F00DF900EE100AB8EE56
:104A0000C08AB0EE610A00F0CDFE28EE000AEDE7A4
:104A1000B0EE401A10B531EE200A00F0FBF8014666
:104A200031EE600A00F0F6F8081A02F074F99FED12
:104A3000051B53EC112B02F013FA01F0C3FE00EE3C
:104A4000100A10BD000000000000E03F70B561EEEC
:104A5000A00A2DED068BB0EE418A28EE211A664C95
:104A600030EE200A21EE211A84ED161AC4ED170A41
:104A700084ED180A00F0FBFD10EE100A02F01AFC9B
:104A80009FED5E1B53EC112B02F0EAF941EC190B80
:104A9000A06D054602F00EFC53EC192B01F0C4FE8C
:104AA00041EC190B284602F005FC53EC192B02F0DF
:104AB000D7F901F087FE00EE100A01F06DFA84EDDF
:104AC000190A94ED180A00F0A5F800EE100AD4EDCA
:104AD000190AD4ED168AB8EEC00A70EEE80A20EE84
:104AE000200A10EE100A02F0E5FB9FED460B53EC96
:104AF000102B02F0B5F941EC190BE06D02F0DAFB76
:104B000053EC192B01F090FE01F05CFEA066F0EE74
:104B1000680A94ED180AFFF77BFF10EE100A02F006
:104B2000C9FB9FED3AAB53EC1A2B02F0CDFA41ECE6
:104B3000190BA06E02F0BEFB53EC192B02F090F99A
:104B400041EC190BD4ED160A94ED180AFFF760FF3B
:104B5000D4ED170A94ED181A70EE810A20EE200A9F
:104B600010EE100A02F0A6FB53EC192B01F05CFECC
:104B700001F028FE00EE100A84ED1B0AD4ED160A9F
:104B8000FFF746FF10EE100A02F094FB53EC1A2BCD
:104B900002F09AFA41EC190B94ED1B0A00F03AF876
:104BA00000EE100AB8EEC00A20EE080A10EE100A55
:104BB00002F080FB53EC192B02F052F994ED1B0A22
:104BC000D4ED160A41EC190B80EE201A28EE418A2A
:104BD000FFF71EFF28EE000A10EE100A02F06AFB33
:104BE00053EC192B02F07CFA01F0ECFDBDEC068BC6
:104BF00000EE100A70BD00008000002000000000E0
:104C000000002040000000000000E03F0000000025
:104C10000000F03FB5EEC00AF1EE10FA01DD012010
:104C20007047B5EEC00AF1EE10FA02D24FF0FF3035
:104C300070470020704770B50C460546FCF770FCC5
:104C40002968401AA04201D3012070BD002070BD28
:104C500080ED022A80ED041A80ED060AC0ED070AF5
:104C6000C0ED081A7047000010B504462DED048B06
:104C7000F0EE408A012980ED0B0A05D0022934D1DB
:104C800094F85100A0B359E094F8510058B994ED4C
:104C90000E0AF0EE000A60EE200A20EE000AC4EDD3
:104CA000170A84ED180AD4ED080A38EEE01A84EDEC
:104CB000101A94ED090AD4ED171AD4ED0C2AB0EEAF
:104CC000402A01EE812AD4ED0D1A01EEA22AD4ED7C
:104CD000131A42EE210AC4ED080AD4ED180A60EE58
:104CE000810A00EEA10A84ED090ABDEC048B10BD17
:104CF000FFE794ED0E8AB0EE080A18EE100A28EECF
:104D0000000A84ED170A02F0D5FA41EC190B18EEEF
:104D1000100A02F0CFFA9FED291B53EC112B02F081
:104D20009FF853EC192B02F09BF801F04BFD28EE95
:104D3000080A206620EE080A84ED190AD4ED081A44
:104D400078EEE10AC4ED100A94ED090A94ED171A01
:104D5000B0EE402A01EE202A94ED131A42EE011A19
:104D6000C4ED081A94F8780060B1D4ED1D1A31EE44
:104D7000C02A84ED112AD4ED0A1AD4ED182A42EE85
:104D8000821A05E0D4ED0A1A94ED182A42EE201A90
:104D9000D4ED0D2A94ED0C2A42EE821A01EE810A1E
:104DA00084ED090A94ED190A60EE200A94ED0A0ACE
:104DB00000EE810A84ED0A0A97E700000000000077
:104DC000000008409FED370A012902D0022941D195
:104DD00019E090F8501019B990ED0F0A80ED150AFE
:104DE00090ED010AD0ED080A90ED1C1A30EE600A31
:104DF000D0ED150A20EE200AD0ED160A00EEC10A09
:104E0000D0ED090A24E090F8501059B990ED0F0A3E
:104E100060EE000AC0ED150AF0EE000A20EE200A4E
:104E200080ED160A90ED010AD0ED080A90ED091AFE
:104E300030EE600AD0ED150A20EE200AD0ED020A0D
:104E400070EEC10A90ED161A01EE200AD0ED0A0AA2
:104E500030EE600A90F8842090F885108A4203D9D9
:104E6000491C80F885107047002180F8851090ED6E
:104E70000D1AC0EE010AC0ED0C0A90ED120AF4EE14
:104E8000C00AF1EE10FA01DD80ED0C0AD0ED0C0A3B
:104E9000B1EE400AF4EEC00AF1EE10FAE3D280ED72
:104EA0000C0A704700000000012180F851105C30AE
:104EB00080EC030A7047012180F8501080ED150A3C
:104EC000C0ED160A704770B50D462DED028BB0EEA1
:104ED000608A04461146FFF785FC2946B0EE480A71
:104EE0002046FFF7C1FE29462046FFF76BFF94EDF1
:104EF0000C0ABDEC028B70BD0FB420222DED060B09
:104F000010B504462DED068BF0EE628AB0EE428AB3
:104F1000B0EE619AB0EE41AAF0EE609AF0EE40AACF
:104F20000FA9FBF781FAC4ED0DAA84ED0EAAC4ED1A
:104F30000F9A84ED129A84ED138AC4ED1A8A002028
:104F400084F8510084F8500084ED058A2046BDECB9
:104F5000068B10BC5DF82CFB10B504462DED048BC0
:104F6000B0EE648AF0EE448AB0EE639A13EE100A53
:104F700084EC060B02F09EF9C4E9060119EE100A52
:104F800002F098F9C4E9080118EE900A02F092F9CB
:104F9000C4E90A0118EE100A02F08CF9C4E90C0108
:104FA0002046BDEC048B10BD10B502784270017034
:104FB0000023C37083708C1A0123012C00D18370ED
:104FC000511A012900D1C37010BD00000FB42DED9E
:104FD000060B70B504462DED0C8BB0EE429AF0EE48
:104FE000629A90F8701090F87100814203D9401CC9
:104FF00084F8710019E1002084F8710084ED000B41
:1050000084ED041B53EC112B51EC100B02F068F8EB
:1050100041EC1A0B84ED16AB94F8D0009FED868B13
:105020009DED1ACB9DED18DB012852D053EC1A2BC5
:1050300051EC1D0B01F014FFC4E9060194ED160BB1
:1050400000F04DFB94ED1A1B51EC100B53EC112B9F
:1050500001F0CAFE08D994ED1A0B53EC182B51EC51
:10506000100B01F0EDFD57D19DED240B51EC100B11
:1050700001F0A8FB9DED220B0AEE900A51EC100BFB
:1050800001F0A0FB94ED160B0AEE100A51EC100B88
:1050900001F098FB00EE100AB0EE6A1AF0EE4A0A30
:1050A000FFF78CFC10EE100A02F004F953EC1C2BF5
:1050B00001F0D6FE9FED621B53EC112B01F0D0FEE8
:1050C00094ED081B53EC112B01F0AEFBC4E9080171
:1050D00028E09DED200B51EC100B01F073FB9DEDD2
:1050E0001E0B0BEE100A51EC100B01F06BFB0BEEDC
:1050F000900A51EC1A0B01F065FB00EE100AB0EEBD
:105100004B1AF0EE6B0AFFF759FC10EE100A02F092
:10511000D1F853EC1D2B8DE7B0EE480AF0EE680A8B
:1051200084ED080B94ED160B00F0D9FA94ED181BE2
:1051300051EC100B53EC112B01F056FE01D284ED13
:10514000088B94ED260B51EC100B01F03BFB00EEAD
:10515000100A012104F1A000FFF744FBD4F8A400D9
:1051600002F0A8F89DED1C1B53EC112B01F078FE0A
:10517000C4E90A0194ED321B94ED080B53EC112B9A
:1051800051EC100B01F06AFF94ED320B02D284ED6A
:10519000080B12E051EC100B01F008FB94ED081B1A
:1051A00053EC112B01F05AFF07D294ED320B51EC66
:1051B000100B01F0FBFAC4E9080153EC182B51EC79
:1051C0001C0B01F03DFD01D184ED088B94ED081B13
:1051D00094ED060B53EC112B51EC100B01F024FB5A
:1051E00094ED0A1B53EC112B01F01EFB41EC100B4C
:1051F00053EC192B84ED020B01F030FF02D284ED49
:10520000029B12E051EC190B01F0D0FA0E4646EC6D
:10521000100B94ED021B054653EC112B51EC100BB7
:1052200001F01CFF01D2C4E9025694ED020BBDEC63
:105230000C8B70BC5DF82CFB00000000000000002F
:10524000000000E04D62503F9FED050B80ED060B26
:1052500080ED080B80ED0A0B80ED020B704700001B
:1052600000000000000000000FB42DED060B70B52B
:1052700004462DED0A8BB0EE428AF0EE628A90F879
:10528000701090F87100814203D9401C84F87100BD
:10529000CEE0002084F8710084ED000B84ED041B47
:1052A00094F8940053EC112B002851EC100B9DED59
:1052B00018AB64D001F014FF01F084FA00EE100A7C
:1052C000012104F17400FFF78DFAA06F01F0F2FFE5
:1052D000C4E9160194ED161B9DED160B53EC112B32
:1052E00051EC100B01F0BCFDC4E9060194ED0E0B6E
:1052F00053EC1A2B51EC100B01F0B2FD94ED081B8E
:1053000053EC112B01F090FA41EC100B84ED080BDB
:1053100094ED321B53EC112B01F0A0FE03D294ED5F
:10532000320B84ED080B94ED320B51EC100B01F0B5
:105330003DFA94ED081B53EC112B01F08FFE07D2C0
:1053400094ED320B51EC100B01F030FAC4E9080176
:1053500094F8C0009FED3ACB9DED1A9B90B194ED6F
:10536000260B51EC100B01F02DFA00EE100A012172
:1053700004F1A000FFF736FAD4F8A40006E001F02B
:10538000AFFEA5E794F8940048B1E06F01F092FFFA
:1053900053EC192B01F064FDC4E90A0111E094ED0E
:1053A000120B94ED16BB53EC102B51EC1B0B01F0C0
:1053B00097FE53EC192B01F053FDC4E90A0184ED6B
:1053C00012BB53EC1C2B51EC1A0B01F039FC01D130
:1053D00084ED08CB94ED081B94ED060B53EC112BD8
:1053E00051EC100B01F020FA94ED0A1B53EC112B39
:1053F00001F01AFA41EC100B53EC182B84ED020B60
:1054000001F02CFE01D284ED028B51EC180B01F05F
:10541000CDF90E4646EC100B94ED021B054653ECFD
:10542000112B51EC100B01F019FE01D2C4E9025608
:1054300094ED020BBDEC0A8B70BC5DF82CFB0000F8
:10544000000000000000000010B500212DED028BCF
:10545000B7EE000A9FED118ADFED118A7430B0EECD
:10546000481AF0EE680AFFF7A1FA0021B0EE481AD8
:10547000F0EE680AB7EE000A2C30FFF797FA9FEDBE
:10548000090A002100ED070A80ED040A00F80C1C4F
:1054900080F82010A038BDEC028B10BD6F12833A4B
:1054A000000000000000C84200B50346FFF75CF8AA
:1054B000C0EB0011C1EBC010022101EBC000596824
:1054C000085E00BD00B50346FFF74EF8C0EB0011C3
:1054D000C1EBC010042101EBC0005968085E00BD9B
:1054E0002DE9F0470346A1F500700C9C09287FD2F6
:1054F000187A00287CD01846FFF736F8411C77D080
:1055000021885D684ABAC0EB0011C1EBC0110220CE
:1055100000EBC106AA5360885D6842BA042000EB24
:10552000C10A25F80A20A0885D68062240BA02EB6D
:10553000C10925F80900A2795868082404EBC104C0
:10554000025358680A2202EBC107C25F845FA2427D
:1055500025D0551C23D0A4EB0208142541F6FF7C6E
:1055600018F57A6F08DA05EBC105ACEB020250F8CA
:105570000580224442440BE0B8F57A6F0ADD05EB62
:10558000C105ACEB040450F805802244A8EB0202EC
:10559000425104E005EBC1028458444484505868E9
:1055A0000C2404EBC104825BC253586830F80A2013
:1055B000025358680E2404EBC10430F8092002534A
:1055C0001A22586802EBC102845C3CB91825845B3E
:1055D00005EBC10544535C680120A0541C225868A7
:1055E00002EBC1014418FBF79BFF00E000E02060E4
:1055F000BDE8F08700B50346FEF7B6FFC0EB00112B
:10560000C1EBC010596801EBC00000BDF0B500252A
:10561000FF26059C093046556D1CEDB2052DFAD3C9
:10562000002503E0665D85556D1CEDB29542F9D30A
:1056300040F8053C00235E1E20F8091D0A2712E0F1
:10564000C3EB0315D0F804C0C5EBC31507EBC50EBB
:105650002CF80E6014F803C0D0F804E08C445B1CF6
:105660002EF835C0DBB29342EAD30272F0BDB0EE41
:10567000C00A70474100080218BF04200A0E18BF74
:1056800040F001004FF07F4232EA010108BF40F0D4
:105690000200012808BF052070470907090E0028ED
:1056A00004DB00F1E02080F80014704700F00F00E8
:1056B00000F1E02080F8141D70472DE9F0411C46F0
:1056C00017460E00804607D0054602E02846B04740
:1056D0003D442046641EF9D24046BDE8F0812DEDE0
:1056E000020B019820F0004001909DED000B02B0EC
:1056F000704710B52DED028BF0EE408A18EE900A3F
:10570000B0EE608A20F00040C0F1FF40C00F07D12A
:1057100018EE100A20F00040C0F1FF40C00F2BD05F
:1057200018EE101A18EE900A01F03AFE00EE100A78
:1057300010EE100A6FEAD05010F0FF0F04BFBDEC5E
:10574000028B10BD18EE900A00F0004110EE100A16
:1057500000F00040814204BFBDEC028B10BD18EE8A
:10576000101A10EE100ABDEC028B61F31E0000EE61
:10577000900A30EE600A10BD18EE900A4FF07F419B
:10578000B1EB400F1CBF18EE100A5FEA4000C7D112
:105790000120FAF7BCFEBDEC028BBDE8104000F022
:1057A00029BC000010B510EE100A2DED068BB7EEE7
:1057B000001A10EE901AB0EE418A0022A0F5000CFB
:1057C000DFEDFE9A4FF00073BCF1FE4F4FF07F44C7
:1057D00003EB410C80F0B481BCF1804FC0F020821B
:1057E000F74901449FEDF73AB1F5005F40F2D482EA
:1057F00000F58021CB0C03F00F0101EE901AC3F3EA
:1058000007137F3BA0EBC350B8EEE12A00EE100A6D
:105810001A44DFEDED2AF0EE411A42EE221AF0EEC4
:10582000613A70EE232A30EE632A12EE900A00F5F8
:1058300000606FF30B0001EE900A73EEE13A33EE75
:10584000804AC1EE223A22EE230A10EE100A00F539
:1058500000606FF30B0000EE100A00EE612A00EE0C
:10586000442A62EE232A70EE221A21EEA12ADFEDED
:10587000D73A02EE233A23EE023A20EE012A22EE34
:10588000811A03EE211A32EE010A10EE100A00F519
:1058900000606FF30B0000EE100A72EE401A31EE5A
:1058A000812A9FEDCB1A60EE011A9FEDCA1A20EEF5
:1058B000011A9FEDC90A02EE001A31EE810A10EEBC
:1058C000100A00F500606FF30B0000EE100AC348E9
:1058D00071EEC01A31EE812A784400EBC10090EDE0
:1058E000003AD0ED011A100101EE100AF8EEC12ABB
:1058F00032EE211A31EE001A31EE031A31EE221A7D
:1059000011EE100A00F500606FF30B0009EE100AAB
:1059100039EE621A31EE431A31EE400A30EE610A76
:1059200032EE40AA10EE900A002100F500606FF3FD
:105930000B0008EE900A084670EEE8AA4FF000004F
:1059400029EE280A00F00C01F0EEC00A10EE900AD1
:10595000B0F18B4F0DDD10EE900AB4EB400F08D381
:1059600010EE100A4FF08B4262F31E0008EE900A10
:1059700013E069EE2A0A38EEAA1A4AEE010A30EE5E
:10598000201A11EE100A00F500606FF30B0008EE0C
:10599000900A30EE680A70EE209A0C204FF000005A
:1059A00038EEA90AB5EEC00AF1EE10FA34BFFEEEE9
:1059B000000AF6EE000A30EE800ABDEEC00A10EED4
:1059C000100A011100EE101AF8EEC00A00EE100ADB
:1059D000B8EEC00A38EEC00A30EE290ADFED801AB0
:1059E0009FED801A00EE211ADFED7F1A7F4900F04B
:1059F0000F0040EE011A21EE800A794401EB80018C
:105A000091ED001A7A49794401EB8001D1ED001A39
:105A1000784901EE801A794401EB8000764990EDD7
:105A2000000A31EE001AB0EEE00A10EE100A8842C9
:105A300015DA10EE100AB4EB400F10D39FED6F0A89
:105A400030EE800ADFED6E0A20EE200A68EE010AD1
:105A5000BDEC068BBCEEC00A20EE200A10BD10EE95
:105A6000100A6849884243DA10EE100AB4EB400F7E
:105A70003ED3BDEEE00A68EE010A10EE100A00EB1C
:105A8000D0725110C90501F17E5100EE101AA0EB41
:105A90006200C00560EE200A00F17E5000EE100AA0
:105AA00060EE808A18EE900AB4EB400F0FD102200E
:105AB000FAF72DFD00F0A6FA10EE101A18EE100AF3
:105AC000BDEC068B61F31E0000EE100A10BD18EE4F
:105AD000900A400011D018EE900AFFF7CBFD042881
